{
    "_format": "hh-sol-artifact-1",
    "contractName": "ProxyContract",
    "sourceName": "contracts/ProxyContract.sol",
    "abi": [
        {
            "inputs": [
                {
                    "internalType": "contract IEntryPoint",
                    "name": "entryPoint",
                    "type": "address"
                }
            ],
            "stateMutability": "nonpayable",
            "type": "constructor"
        },
        {
            "anonymous": false,
            "inputs": [
                {
                    "indexed": true,
                    "internalType": "address",
                    "name": "accountOwner",
                    "type": "address"
                }
            ],
            "name": "AccountDestroyed",
            "type": "event"
        },
        {
            "inputs": [
                {
                    "internalType": "address[]",
                    "name": "owners",
                    "type": "address[]"
                },
                {
                    "internalType": "uint256",
                    "name": "salt",
                    "type": "uint256"
                }
            ],
            "name": "createSmartWallet",
            "outputs": [
                {
                    "internalType": "contract SmartWallet",
                    "name": "",
                    "type": "address"
                }
            ],
            "stateMutability": "nonpayable",
            "type": "function"
        },
        {
            "inputs": [
                {
                    "internalType": "address",
                    "name": "accountOwner",
                    "type": "address"
                }
            ],
            "name": "destroyAccount",
            "outputs": [],
            "stateMutability": "nonpayable",
            "type": "function"
        },
        {
            "inputs": [
                {
                    "internalType": "address[]",
                    "name": "owners",
                    "type": "address[]"
                },
                {
                    "internalType": "uint256",
                    "name": "salt",
                    "type": "uint256"
                }
            ],
            "name": "getAddress",
            "outputs": [
                {
                    "internalType": "address",
                    "name": "",
                    "type": "address"
                }
            ],
            "stateMutability": "view",
            "type": "function"
        },
        {
            "inputs": [
                {
                    "internalType": "address",
                    "name": "",
                    "type": "address"
                }
            ],
            "name": "isSmartWalletDeployed",
            "outputs": [
                {
                    "internalType": "bool",
                    "name": "",
                    "type": "bool"
                }
            ],
            "stateMutability": "view",
            "type": "function"
        },
        {
            "inputs": [
                {
                    "internalType": "address[]",
                    "name": "owners",
                    "type": "address[]"
                },
                {
                    "internalType": "uint256",
                    "name": "salt",
                    "type": "uint256"
                }
            ],
            "name": "requestRedeployment",
            "outputs": [
                {
                    "internalType": "contract SmartWallet",
                    "name": "",
                    "type": "address"
                }
            ],
            "stateMutability": "nonpayable",
            "type": "function"
        },
        {
            "inputs": [],
            "name": "walletImplementation",
            "outputs": [
                {
                    "internalType": "contract SmartWallet",
                    "name": "",
                    "type": "address"
                }
            ],
            "stateMutability": "view",
            "type": "function"
        }
    ],
    "bytecode": "0x60a060405234801562000010575f80fd5b50604051620034c5380380620034c583398181016040528101906200003691906200012e565b80306040516200004690620000a8565b62000053929190620001d6565b604051809103905ff0801580156200006d573d5f803e3d5ffd5b5073ffffffffffffffffffffffffffffffffffffffff1660808173ffffffffffffffffffffffffffffffffffffffff16815250505062000201565b611d47806200177e83390190565b5f80fd5b5f73ffffffffffffffffffffffffffffffffffffffff82169050919050565b5f620000e582620000ba565b9050919050565b5f620000f882620000d9565b9050919050565b6200010a81620000ec565b811462000115575f80fd5b50565b5f815190506200012881620000ff565b92915050565b5f60208284031215620001465762000145620000b6565b5b5f620001558482850162000118565b91505092915050565b5f819050919050565b5f62000187620001816200017b84620000ba565b6200015e565b620000ba565b9050919050565b5f6200019a8262000167565b9050919050565b5f620001ad826200018e565b9050919050565b620001bf81620001a1565b82525050565b620001d081620000d9565b82525050565b5f604082019050620001eb5f830185620001b4565b620001fa6020830184620001c5565b9392505050565b60805161154f6200022f5f395f81816102f101528181610372015281816105c1015261074b015261154f5ff3fe608060405234801562000010575f80fd5b506004361062000068575f3560e01c80636d91a2d3146200006c5780638117abc1146200008c57806394f7e8e014620000ae578063b47920f214620000e4578063f81da01c146200011a578063f9bf5c2c1462000150575b5f80fd5b6200008a60048036038101906200008491906200085c565b62000186565b005b62000096620002ef565b604051620000a59190620008f3565b60405180910390f35b620000cc6004803603810190620000c6919062000ab2565b62000313565b604051620000db919062000b27565b60405180910390f35b620001026004803603810190620000fc919062000ab2565b62000427565b604051620001119190620008f3565b60405180910390f35b62000138600480360381019062000132919062000ab2565b62000521565b604051620001479190620008f3565b60405180910390f35b6200016e60048036038101906200016891906200085c565b6200067f565b6040516200017d919062000b5e565b60405180910390f35b5f808273ffffffffffffffffffffffffffffffffffffffff1673ffffffffffffffffffffffffffffffffffffffff1681526020019081526020015f205f9054906101000a900460ff1662000211576040517f08c379a0000000000000000000000000000000000000000000000000000000008152600401620002089062000bd7565b60405180910390fd5b8073ffffffffffffffffffffffffffffffffffffffff166108fc4790811502906040515f60405180830381858888f1935050505015801562000255573d5f803e3d5ffd5b505f805f8373ffffffffffffffffffffffffffffffffffffffff1673ffffffffffffffffffffffffffffffffffffffff1681526020019081526020015f205f6101000a81548160ff0219169083151502179055508073ffffffffffffffffffffffffffffffffffffffff167f29dd3fa5d655148a1ed352dce092c0276462963d5190ac10be179510f0f9636060405160405180910390a250565b7f000000000000000000000000000000000000000000000000000000000000000081565b5f808360405160240162000328919062000cbe565b60405160208183030381529060405263a224cee760e01b6020820180517bffffffffffffffffffffffffffffffffffffffffffffffffffffffff838183161783525050505090505f7f000000000000000000000000000000000000000000000000000000000000000082604051602001620003a592919062000d64565b60405160208183030381529060405290505f60405180602001620003c990620007dc565b6020820181038252601f19601f8201166040525082604051602001620003f192919062000dd6565b60405160208183030381529060405290505f818051906020012090506200041b865f1b826200069b565b94505050505092915050565b5f805f3373ffffffffffffffffffffffffffffffffffffffff1673ffffffffffffffffffffffffffffffffffffffff1681526020019081526020015f205f9054906101000a900460ff1615620004b4576040517f08c379a0000000000000000000000000000000000000000000000000000000008152600401620004ab9062000e4b565b60405180910390fd5b5f620004c18484620006b1565b905060015f803373ffffffffffffffffffffffffffffffffffffffff1673ffffffffffffffffffffffffffffffffffffffff1681526020019081526020015f205f6101000a81548160ff0219169083151502179055508091505092915050565b5f806200052f848462000313565b90505f8173ffffffffffffffffffffffffffffffffffffffff163b90505f8111156200056057819250505062000679565b5f8560405160240162000574919062000cbe565b60405160208183030381529060405263a224cee760e01b6020820180517bffffffffffffffffffffffffffffffffffffffffffffffffffffffff838183161783525050505090505f855f1b7f000000000000000000000000000000000000000000000000000000000000000083604051620005ef90620007dc565b620005fc92919062000d64565b8190604051809103905ff59050801580156200061a573d5f803e3d5ffd5b50905060015f803373ffffffffffffffffffffffffffffffffffffffff1673ffffffffffffffffffffffffffffffffffffffff1681526020019081526020015f205f6101000a81548160ff021916908315150217905550809450505050505b92915050565b5f602052805f5260405f205f915054906101000a900460ff1681565b5f620006a9838330620007b2565b905092915050565b5f8083604051602401620006c6919062000cbe565b6040516020818303038152906040527fa224cee7000000000000000000000000000000000000000000000000000000007bffffffffffffffffffffffffffffffffffffffffffffffffffffffff19166020820180517bffffffffffffffffffffffffffffffffffffffffffffffffffffffff838183161783525050505090505f835f1b7f0000000000000000000000000000000000000000000000000000000000000000836040516200077990620007dc565b6200078692919062000d64565b8190604051809103905ff5905080158015620007a4573d5f803e3d5ffd5b509050809250505092915050565b5f604051836040820152846020820152828152600b810160ff815360558120925050509392505050565b6106ae8062000e6c83390190565b5f604051905090565b5f80fd5b5f80fd5b5f73ffffffffffffffffffffffffffffffffffffffff82169050919050565b5f6200082682620007fb565b9050919050565b62000838816200081a565b811462000843575f80fd5b50565b5f8135905062000856816200082d565b92915050565b5f60208284031215620008745762000873620007f3565b5b5f620008838482850162000846565b91505092915050565b5f819050919050565b5f620008b5620008af620008a984620007fb565b6200088c565b620007fb565b9050919050565b5f620008c88262000895565b9050919050565b5f620008db82620008bc565b9050919050565b620008ed81620008cf565b82525050565b5f602082019050620009085f830184620008e2565b92915050565b5f80fd5b5f601f19601f8301169050919050565b7f4e487b71000000000000000000000000000000000000000000000000000000005f52604160045260245ffd5b6200095a8262000912565b810181811067ffffffffffffffff821117156200097c576200097b62000922565b5b80604052505050565b5f62000990620007ea565b90506200099e82826200094f565b919050565b5f67ffffffffffffffff821115620009c057620009bf62000922565b5b602082029050602081019050919050565b5f80fd5b5f620009eb620009e584620009a3565b62000985565b9050808382526020820190506020840283018581111562000a115762000a10620009d1565b5b835b8181101562000a3e578062000a29888262000846565b84526020840193505060208101905062000a13565b5050509392505050565b5f82601f83011262000a5f5762000a5e6200090e565b5b813562000a71848260208601620009d5565b91505092915050565b5f819050919050565b62000a8e8162000a7a565b811462000a99575f80fd5b50565b5f8135905062000aac8162000a83565b92915050565b5f806040838503121562000acb5762000aca620007f3565b5b5f83013567ffffffffffffffff81111562000aeb5762000aea620007f7565b5b62000af98582860162000a48565b925050602062000b0c8582860162000a9c565b9150509250929050565b62000b21816200081a565b82525050565b5f60208201905062000b3c5f83018462000b16565b92915050565b5f8115159050919050565b62000b588162000b42565b82525050565b5f60208201905062000b735f83018462000b4d565b92915050565b5f82825260208201905092915050565b7f4163636f756e7420646f6573206e6f74206578697374000000000000000000005f82015250565b5f62000bbf60168362000b79565b915062000bcc8262000b89565b602082019050919050565b5f6020820190508181035f83015262000bf08162000bb1565b9050919050565b5f81519050919050565b5f82825260208201905092915050565b5f819050602082019050919050565b62000c2b816200081a565b82525050565b5f62000c3e838362000c20565b60208301905092915050565b5f602082019050919050565b5f62000c628262000bf7565b62000c6e818562000c01565b935062000c7b8362000c11565b805f5b8381101562000cb157815162000c95888262000c31565b975062000ca28362000c4a565b92505060018101905062000c7e565b5085935050505092915050565b5f6020820190508181035f83015262000cd8818462000c56565b905092915050565b5f81519050919050565b5f82825260208201905092915050565b5f5b8381101562000d1957808201518184015260208101905062000cfc565b5f8484015250505050565b5f62000d308262000ce0565b62000d3c818562000cea565b935062000d4e81856020860162000cfa565b62000d598162000912565b840191505092915050565b5f60408201905062000d795f83018562000b16565b818103602083015262000d8d818462000d24565b90509392505050565b5f81905092915050565b5f62000dac8262000ce0565b62000db8818562000d96565b935062000dca81856020860162000cfa565b80840191505092915050565b5f62000de3828562000da0565b915062000df1828462000da0565b91508190509392505050565b7f4163636f756e7420697320616c7265616479206465706c6f79656400000000005f82015250565b5f62000e33601b8362000b79565b915062000e408262000dfd565b602082019050919050565b5f6020820190508181035f83015262000e648162000e25565b905091905056fe60806040526040516106ae3803806106ae833981810160405281019061002591906104f2565b610035828261003c60201b60201c565b50506105ce565b61004b826100c060201b60201c565b8173ffffffffffffffffffffffffffffffffffffffff167fbc7cd75a20ee27fd9adebab32041f755214dbc6bffa90cc0225b39da2e5c2d3b60405160405180910390a25f815111156100ad576100a7828261018f60201b60201c565b506100bc565b6100bb61021560201b60201c565b5b5050565b5f8173ffffffffffffffffffffffffffffffffffffffff163b0361011b57806040517f4c9c8ce3000000000000000000000000000000000000000000000000000000008152600401610112919061055b565b60405180910390fd5b8061014d7f360894a13ba1a3210667c828492db98dca3e2076cc3735a920a3ca505d382bbc5f1b61025160201b60201c565b5f015f6101000a81548173ffffffffffffffffffffffffffffffffffffffff021916908373ffffffffffffffffffffffffffffffffffffffff16021790555050565b60605f808473ffffffffffffffffffffffffffffffffffffffff16846040516101b891906105b8565b5f60405180830381855af49150503d805f81146101f0576040519150601f19603f3d011682016040523d82523d5f602084013e6101f5565b606091505b509150915061020b85838361025a60201b60201c565b9250505092915050565b5f34111561024f576040517fb398979f00000000000000000000000000000000000000000000000000000000815260040160405180910390fd5b565b5f819050919050565b60608261027557610270826102ed60201b60201c565b6102e5565b5f825114801561029b57505f8473ffffffffffffffffffffffffffffffffffffffff163b145b156102dd57836040517f9996b3150000000000000000000000000000000000000000000000000000000081526004016102d4919061055b565b60405180910390fd5b8190506102e6565b5b9392505050565b5f815111156102ff5780518082602001fd5b6040517f1425ea4200000000000000000000000000000000000000000000000000000000815260040160405180910390fd5b5f604051905090565b5f80fd5b5f80fd5b5f73ffffffffffffffffffffffffffffffffffffffff82169050919050565b5f61036b82610342565b9050919050565b61037b81610361565b8114610385575f80fd5b50565b5f8151905061039681610372565b92915050565b5f80fd5b5f80fd5b5f601f19601f8301169050919050565b7f4e487b71000000000000000000000000000000000000000000000000000000005f52604160045260245ffd5b6103ea826103a4565b810181811067ffffffffffffffff82111715610409576104086103b4565b5b80604052505050565b5f61041b610331565b905061042782826103e1565b919050565b5f67ffffffffffffffff821115610446576104456103b4565b5b61044f826103a4565b9050602081019050919050565b5f5b8381101561047957808201518184015260208101905061045e565b5f8484015250505050565b5f6104966104918461042c565b610412565b9050828152602081018484840111156104b2576104b16103a0565b5b6104bd84828561045c565b509392505050565b5f82601f8301126104d9576104d861039c565b5b81516104e9848260208601610484565b91505092915050565b5f80604083850312156105085761050761033a565b5b5f61051585828601610388565b925050602083015167ffffffffffffffff8111156105365761053561033e565b5b610542858286016104c5565b9150509250929050565b61055581610361565b82525050565b5f60208201905061056e5f83018461054c565b92915050565b5f81519050919050565b5f81905092915050565b5f61059282610574565b61059c818561057e565b93506105ac81856020860161045c565b80840191505092915050565b5f6105c38284610588565b915081905092915050565b60d4806105da5f395ff3fe6080604052600a600c565b005b60186014601a565b6026565b565b5f60216044565b905090565b365f80375f80365f845af43d5f803e805f81146040573d5ff35b3d5ffd5b5f606e7f360894a13ba1a3210667c828492db98dca3e2076cc3735a920a3ca505d382bbc5f1b6095565b5f015f9054906101000a900473ffffffffffffffffffffffffffffffffffffffff16905090565b5f81905091905056fea264697066735822122015f57705b31b3ca854ad88df61c4ee20d45c9fffdae9afa45de2a76ac780383664736f6c63430008140033a26469706673582212209c0f23415b5fbe3c548aece0baca6a500463a6568eacf393cad16a8bcd2c6e7164736f6c6343000814003360e06040523073ffffffffffffffffffffffffffffffffffffffff1660809073ffffffffffffffffffffffffffffffffffffffff1681525034801562000043575f80fd5b5060405162001d4738038062001d47833981810160405281019062000069919062000180565b8173ffffffffffffffffffffffffffffffffffffffff1660c08173ffffffffffffffffffffffffffffffffffffffff16815250508073ffffffffffffffffffffffffffffffffffffffff1660a08173ffffffffffffffffffffffffffffffffffffffff16815250505050620001c5565b5f80fd5b5f73ffffffffffffffffffffffffffffffffffffffff82169050919050565b5f6200010882620000dd565b9050919050565b5f6200011b82620000fc565b9050919050565b6200012d816200010f565b811462000138575f80fd5b50565b5f815190506200014b8162000122565b92915050565b6200015c81620000fc565b811462000167575f80fd5b50565b5f815190506200017a8162000151565b92915050565b5f8060408385031215620001995762000198620000d9565b5b5f620001a8858286016200013b565b9250506020620001bb858286016200016a565b9150509250929050565b60805160a05160c051611b186200022f5f395f818161024b015281816103f4015281816107a8015281816109dd0152610ce901525f81816102a001528181610449015281816108530152610a3201525f81816108f70152818161094c0152610be20152611b185ff3fe60806040526004361061009e575f3560e01c806352d1902d1161006357806352d1902d1461014f578063a224cee714610179578063ad3cb1cc146101a1578063b0d691fe146101cb578063c399ec88146101f5578063ed5504431461021f576100a5565b8062f714ce146100a9578063025e7c27146100d157806349bdc2b81461010d5780634a58db19146101295780634f1ef28614610133576100a5565b366100a557005b5f80fd5b3480156100b4575f80fd5b506100cf60048036038101906100ca91906111bc565b610249565b005b3480156100dc575f80fd5b506100f760048036038101906100f291906111fa565b6103b8565b6040516101049190611245565b60405180910390f35b610127600480360381019061012291906112e9565b6103f2565b005b61013161052a565b005b61014d60048036038101906101489190611492565b61059b565b005b34801561015a575f80fd5b506101636105ba565b6040516101709190611504565b60405180910390f35b348015610184575f80fd5b5061019f600480360381019061019a91906115dd565b6105eb565b005b3480156101ac575f80fd5b506101b561076c565b6040516101c2919061169e565b60405180910390f35b3480156101d6575f80fd5b506101df6107a5565b6040516101ec9190611719565b60405180910390f35b348015610200575f80fd5b506102096107cc565b6040516102169190611741565b60405180910390f35b34801561022a575f80fd5b50610233610851565b6040516102409190611245565b60405180910390f35b7f000000000000000000000000000000000000000000000000000000000000000073ffffffffffffffffffffffffffffffffffffffff163373ffffffffffffffffffffffffffffffffffffffff1614806102ee57507f000000000000000000000000000000000000000000000000000000000000000073ffffffffffffffffffffffffffffffffffffffff163373ffffffffffffffffffffffffffffffffffffffff16145b61032d576040517f08c379a0000000000000000000000000000000000000000000000000000000008152600401610324906117ca565b60405180910390fd5b47821115610370576040517f08c379a000000000000000000000000000000000000000000000000000000000815260040161036790611832565b60405180910390fd5b8073ffffffffffffffffffffffffffffffffffffffff166108fc8390811502906040515f60405180830381858888f193505050501580156103b3573d5f803e3d5ffd5b505050565b5f81815481106103c6575f80fd5b905f5260205f20015f915054906101000a900473ffffffffffffffffffffffffffffffffffffffff1681565b7f000000000000000000000000000000000000000000000000000000000000000073ffffffffffffffffffffffffffffffffffffffff163373ffffffffffffffffffffffffffffffffffffffff16148061049757507f000000000000000000000000000000000000000000000000000000000000000073ffffffffffffffffffffffffffffffffffffffff163373ffffffffffffffffffffffffffffffffffffffff16145b6104d6576040517f08c379a00000000000000000000000000000000000000000000000000000000081526004016104cd906117ca565b60405180910390fd5b610524848484848080601f0160208091040260200160405190810160405280939291908181526020018383808284375f81840152601f19601f82011690508083019250505050505050610875565b50505050565b6105326107a5565b73ffffffffffffffffffffffffffffffffffffffff1663b760faf934306040518363ffffffff1660e01b815260040161056b9190611245565b5f604051808303818588803b158015610582575f80fd5b505af1158015610594573d5f803e3d5ffd5b5050505050565b6105a36108f5565b6105ac826109db565b6105b68282610ac2565b5050565b5f6105c3610be0565b7f360894a13ba1a3210667c828492db98dca3e2076cc3735a920a3ca505d382bbc5f1b905090565b5f6105f4610c67565b90505f815f0160089054906101000a900460ff161590505f825f015f9054906101000a900467ffffffffffffffff1690505f808267ffffffffffffffff1614801561063c5750825b90505f60018367ffffffffffffffff1614801561066f57505f3073ffffffffffffffffffffffffffffffffffffffff163b145b90508115801561067d575080155b156106b4576040517ff92ee8a900000000000000000000000000000000000000000000000000000000815260040160405180910390fd5b6001855f015f6101000a81548167ffffffffffffffff021916908367ffffffffffffffff1602179055508315610701576001855f0160086101000a81548160ff0219169083151502179055505b61070a86610c8e565b8315610764575f855f0160086101000a81548160ff0219169083151502179055507fc7f505b2f371ae2175ee4913f4499e1f2633a7b5936321eed1cdaeb6115181d2600160405161075b919061189c565b60405180910390a15b505050505050565b6040518060400160405280600581526020017f352e302e3000000000000000000000000000000000000000000000000000000081525081565b5f7f0000000000000000000000000000000000000000000000000000000000000000905090565b5f6107d56107a5565b73ffffffffffffffffffffffffffffffffffffffff166370a08231306040518263ffffffff1660e01b815260040161080d9190611245565b602060405180830381865afa158015610828573d5f803e3d5ffd5b505050506040513d601f19601f8201168201806040525081019061084c91906118c9565b905090565b7f000000000000000000000000000000000000000000000000000000000000000081565b5f808473ffffffffffffffffffffffffffffffffffffffff16848460405161089d9190611938565b5f6040518083038185875af1925050503d805f81146108d7576040519150601f19603f3d011682016040523d82523d5f602084013e6108dc565b606091505b5091509150816108ee57805160208201fd5b5050505050565b7f000000000000000000000000000000000000000000000000000000000000000073ffffffffffffffffffffffffffffffffffffffff163073ffffffffffffffffffffffffffffffffffffffff1614806109a257507f000000000000000000000000000000000000000000000000000000000000000073ffffffffffffffffffffffffffffffffffffffff16610989610d58565b73ffffffffffffffffffffffffffffffffffffffff1614155b156109d9576040517fe07c8dba00000000000000000000000000000000000000000000000000000000815260040160405180910390fd5b565b7f000000000000000000000000000000000000000000000000000000000000000073ffffffffffffffffffffffffffffffffffffffff163373ffffffffffffffffffffffffffffffffffffffff161480610a8057507f000000000000000000000000000000000000000000000000000000000000000073ffffffffffffffffffffffffffffffffffffffff163373ffffffffffffffffffffffffffffffffffffffff16145b610abf576040517f08c379a0000000000000000000000000000000000000000000000000000000008152600401610ab6906117ca565b60405180910390fd5b50565b8173ffffffffffffffffffffffffffffffffffffffff166352d1902d6040518163ffffffff1660e01b8152600401602060405180830381865afa925050508015610b2a57506040513d601f19601f82011682018060405250810190610b279190611978565b60015b610b6b57816040517f4c9c8ce3000000000000000000000000000000000000000000000000000000008152600401610b629190611245565b60405180910390fd5b7f360894a13ba1a3210667c828492db98dca3e2076cc3735a920a3ca505d382bbc5f1b8114610bd157806040517faa1d49a4000000000000000000000000000000000000000000000000000000008152600401610bc89190611504565b60405180910390fd5b610bdb8383610dab565b505050565b7f000000000000000000000000000000000000000000000000000000000000000073ffffffffffffffffffffffffffffffffffffffff163073ffffffffffffffffffffffffffffffffffffffff1614610c65576040517fe07c8dba00000000000000000000000000000000000000000000000000000000815260040160405180910390fd5b565b5f7ff0c57e16840df040f15088dc2f81fe391c3923bec73e23a9662efc9c229c6a00905090565b5f815111610cd1576040517f08c379a0000000000000000000000000000000000000000000000000000000008152600401610cc8906119ed565b60405180910390fd5b805f9080519060200190610ce692919061107c565b507f000000000000000000000000000000000000000000000000000000000000000073ffffffffffffffffffffffffffffffffffffffff167f8afffd56adb385a94a6b7426d4e3f51e2f9de8984c19093c2ddccf8fcfddfe8d82604051610d4d9190611ac2565b60405180910390a250565b5f610d847f360894a13ba1a3210667c828492db98dca3e2076cc3735a920a3ca505d382bbc5f1b610e1d565b5f015f9054906101000a900473ffffffffffffffffffffffffffffffffffffffff16905090565b610db482610e26565b8173ffffffffffffffffffffffffffffffffffffffff167fbc7cd75a20ee27fd9adebab32041f755214dbc6bffa90cc0225b39da2e5c2d3b60405160405180910390a25f81511115610e1057610e0a8282610eef565b50610e19565b610e18610f6f565b5b5050565b5f819050919050565b5f8173ffffffffffffffffffffffffffffffffffffffff163b03610e8157806040517f4c9c8ce3000000000000000000000000000000000000000000000000000000008152600401610e789190611245565b60405180910390fd5b80610ead7f360894a13ba1a3210667c828492db98dca3e2076cc3735a920a3ca505d382bbc5f1b610e1d565b5f015f6101000a81548173ffffffffffffffffffffffffffffffffffffffff021916908373ffffffffffffffffffffffffffffffffffffffff16021790555050565b60605f808473ffffffffffffffffffffffffffffffffffffffff1684604051610f189190611938565b5f60405180830381855af49150503d805f8114610f50576040519150601f19603f3d011682016040523d82523d5f602084013e610f55565b606091505b5091509150610f65858383610fab565b9250505092915050565b5f341115610fa9576040517fb398979f00000000000000000000000000000000000000000000000000000000815260040160405180910390fd5b565b606082610fc057610fbb82611038565b611030565b5f8251148015610fe657505f8473ffffffffffffffffffffffffffffffffffffffff163b145b1561102857836040517f9996b31500000000000000000000000000000000000000000000000000000000815260040161101f9190611245565b60405180910390fd5b819050611031565b5b9392505050565b5f8151111561104a5780518082602001fd5b6040517f1425ea4200000000000000000000000000000000000000000000000000000000815260040160405180910390fd5b828054828255905f5260205f209081019282156110f2579160200282015b828111156110f1578251825f6101000a81548173ffffffffffffffffffffffffffffffffffffffff021916908373ffffffffffffffffffffffffffffffffffffffff1602179055509160200191906001019061109a565b5b5090506110ff9190611103565b5090565b5b8082111561111a575f815f905550600101611104565b5090565b5f604051905090565b5f80fd5b5f80fd5b5f819050919050565b6111418161112f565b811461114b575f80fd5b50565b5f8135905061115c81611138565b92915050565b5f73ffffffffffffffffffffffffffffffffffffffff82169050919050565b5f61118b82611162565b9050919050565b61119b81611181565b81146111a5575f80fd5b50565b5f813590506111b681611192565b92915050565b5f80604083850312156111d2576111d1611127565b5b5f6111df8582860161114e565b92505060206111f0858286016111a8565b9150509250929050565b5f6020828403121561120f5761120e611127565b5b5f61121c8482850161114e565b91505092915050565b5f61122f82611162565b9050919050565b61123f81611225565b82525050565b5f6020820190506112585f830184611236565b92915050565b61126781611225565b8114611271575f80fd5b50565b5f813590506112828161125e565b92915050565b5f80fd5b5f80fd5b5f80fd5b5f8083601f8401126112a9576112a8611288565b5b8235905067ffffffffffffffff8111156112c6576112c561128c565b5b6020830191508360018202830111156112e2576112e1611290565b5b9250929050565b5f805f806060858703121561130157611300611127565b5b5f61130e87828801611274565b945050602061131f8782880161114e565b935050604085013567ffffffffffffffff8111156113405761133f61112b565b5b61134c87828801611294565b925092505092959194509250565b5f80fd5b5f601f19601f8301169050919050565b7f4e487b71000000000000000000000000000000000000000000000000000000005f52604160045260245ffd5b6113a48261135e565b810181811067ffffffffffffffff821117156113c3576113c261136e565b5b80604052505050565b5f6113d561111e565b90506113e1828261139b565b919050565b5f67ffffffffffffffff821115611400576113ff61136e565b5b6114098261135e565b9050602081019050919050565b828183375f83830152505050565b5f611436611431846113e6565b6113cc565b9050828152602081018484840111156114525761145161135a565b5b61145d848285611416565b509392505050565b5f82601f83011261147957611478611288565b5b8135611489848260208601611424565b91505092915050565b5f80604083850312156114a8576114a7611127565b5b5f6114b585828601611274565b925050602083013567ffffffffffffffff8111156114d6576114d561112b565b5b6114e285828601611465565b9150509250929050565b5f819050919050565b6114fe816114ec565b82525050565b5f6020820190506115175f8301846114f5565b92915050565b5f67ffffffffffffffff8211156115375761153661136e565b5b602082029050602081019050919050565b5f61155a6115558461151d565b6113cc565b9050808382526020820190506020840283018581111561157d5761157c611290565b5b835b818110156115a657806115928882611274565b84526020840193505060208101905061157f565b5050509392505050565b5f82601f8301126115c4576115c3611288565b5b81356115d4848260208601611548565b91505092915050565b5f602082840312156115f2576115f1611127565b5b5f82013567ffffffffffffffff81111561160f5761160e61112b565b5b61161b848285016115b0565b91505092915050565b5f81519050919050565b5f82825260208201905092915050565b5f5b8381101561165b578082015181840152602081019050611640565b5f8484015250505050565b5f61167082611624565b61167a818561162e565b935061168a81856020860161163e565b6116938161135e565b840191505092915050565b5f6020820190508181035f8301526116b68184611666565b905092915050565b5f819050919050565b5f6116e16116dc6116d784611162565b6116be565b611162565b9050919050565b5f6116f2826116c7565b9050919050565b5f611703826116e8565b9050919050565b611713816116f9565b82525050565b5f60208201905061172c5f83018461170a565b92915050565b61173b8161112f565b82525050565b5f6020820190506117545f830184611732565b92915050565b7f6f6e6c7920656e74727920706f696e74206f722077616c6c657420666163746f5f8201527f72792063616e2063616c6c000000000000000000000000000000000000000000602082015250565b5f6117b4602b8361162e565b91506117bf8261175a565b604082019050919050565b5f6020820190508181035f8301526117e1816117a8565b9050919050565b7f496e73756666696369656e742062616c616e63650000000000000000000000005f82015250565b5f61181c60148361162e565b9150611827826117e8565b602082019050919050565b5f6020820190508181035f83015261184981611810565b9050919050565b5f819050919050565b5f67ffffffffffffffff82169050919050565b5f61188661188161187c84611850565b6116be565b611859565b9050919050565b6118968161186c565b82525050565b5f6020820190506118af5f83018461188d565b92915050565b5f815190506118c381611138565b92915050565b5f602082840312156118de576118dd611127565b5b5f6118eb848285016118b5565b91505092915050565b5f81519050919050565b5f81905092915050565b5f611912826118f4565b61191c81856118fe565b935061192c81856020860161163e565b80840191505092915050565b5f6119438284611908565b915081905092915050565b611957816114ec565b8114611961575f80fd5b50565b5f815190506119728161194e565b92915050565b5f6020828403121561198d5761198c611127565b5b5f61199a84828501611964565b91505092915050565b7f6e6f206f776e65727300000000000000000000000000000000000000000000005f82015250565b5f6119d760098361162e565b91506119e2826119a3565b602082019050919050565b5f6020820190508181035f830152611a04816119cb565b9050919050565b5f81519050919050565b5f82825260208201905092915050565b5f819050602082019050919050565b611a3d81611225565b82525050565b5f611a4e8383611a34565b60208301905092915050565b5f602082019050919050565b5f611a7082611a0b565b611a7a8185611a15565b9350611a8583611a25565b805f5b83811015611ab5578151611a9c8882611a43565b9750611aa783611a5a565b925050600181019050611a88565b5085935050505092915050565b5f6020820190508181035f830152611ada8184611a66565b90509291505056fea2646970667358221220b9a11278af22158fee605c5fc4e013747c4f0539967460ebc0fb56b673af6a1064736f6c63430008140033",
    "linkReferences": {},
    "deployedLinkReferences": {}
}